{
  "_format": "hh-sol-artifact-1",
  "contractName": "Create2Deployer",
  "sourceName": "contracts/utils/Create2Deployer.sol",
  "abi": [
    {
      "anonymous": false,
      "inputs": [
        {
          "indexed": false,
          "internalType": "address",
          "name": "addr",
          "type": "address"
        },
        {
          "indexed": false,
          "internalType": "bytes",
          "name": "hashedBytecode",
          "type": "bytes"
        }
      ],
      "name": "Deployed",
      "type": "event"
    },
    {
      "inputs": [
        {
          "internalType": "bytes",
          "name": "code",
          "type": "bytes"
        },
        {
          "internalType": "uint256",
          "name": "salt",
          "type": "uint256"
        }
      ],
      "name": "deploy",
      "outputs": [],
      "stateMutability": "nonpayable",
      "type": "function"
    }
  ],
  "bytecode": "0x608060405234801561001057600080fd5b506102ad806100206000396000f3fe608060405234801561001057600080fd5b506004361061002b5760003560e01c80639c4ae2d014610030575b600080fd5b61004361003e366004610127565b610045565b005b6000818351602085016000f59050803b61005e57600080fd5b7fcfeb8176d716c40df9140944ffc5a442cbdcb0c49094790294c8915c0df2eed1816002856040516100909190610200565b602060405180830381855afa1580156100ad573d6000803e3d6000fd5b5050506040513d601f19601f820116820180604052508101906100d0919061021c565b60405161060f60f31b6020820152602281019190915260420160408051601f19818403018152908290526101049291610235565b60405180910390a1505050565b634e487b7160e01b600052604160045260246000fd5b6000806040838503121561013a57600080fd5b823567ffffffffffffffff8082111561015257600080fd5b818501915085601f83011261016657600080fd5b81358181111561017857610178610111565b604051601f8201601f19908116603f011681019083821181831017156101a0576101a0610111565b816040528281528860208487010111156101b957600080fd5b826020860160208301376000602093820184015298969091013596505050505050565b60005b838110156101f75781810151838201526020016101df565b50506000910152565b600082516102128184602087016101dc565b9190910192915050565b60006020828403121561022e57600080fd5b5051919050565b60018060a01b038316815260406020820152600082518060408401526102628160608501602087016101dc565b601f01601f191691909101606001939250505056fea2646970667358221220ad52512942524486f2bc865ccd9c367dc14e5348b1ea10ab60d1b5d38cb5b5fd64736f6c63430008110033",
  "linkReferences": {},
  "deployedLinkReferences": {}
}