{
  "_format": "hh-sol-artifact-1",
  "contractName": "SnapshotERC20Guild",
  "sourceName": "contracts/erc20guild/implementations/SnapshotERC20Guild.sol",
  "abi": [
    {
      "anonymous": false,
      "inputs": [
        {
          "indexed": true,
          "internalType": "bytes32",
          "name": "proposalId",
          "type": "bytes32"
        },
        {
          "indexed": false,
          "internalType": "uint256",
          "name": "newState",
          "type": "uint256"
        }
      ],
      "name": "ProposalStateChanged",
      "type": "event"
    },
    {
      "anonymous": false,
      "inputs": [
        {
          "indexed": false,
          "internalType": "address",
          "name": "voter",
          "type": "address"
        },
        {
          "indexed": false,
          "internalType": "uint256",
          "name": "value",
          "type": "uint256"
        }
      ],
      "name": "TokensLocked",
      "type": "event"
    },
    {
      "anonymous": false,
      "inputs": [
        {
          "indexed": false,
          "internalType": "address",
          "name": "voter",
          "type": "address"
        },
        {
          "indexed": false,
          "internalType": "uint256",
          "name": "value",
          "type": "uint256"
        }
      ],
      "name": "TokensWithdrawn",
      "type": "event"
    },
    {
      "anonymous": false,
      "inputs": [
        {
          "indexed": true,
          "internalType": "bytes32",
          "name": "proposalId",
          "type": "bytes32"
        },
        {
          "indexed": true,
          "internalType": "uint256",
          "name": "option",
          "type": "uint256"
        },
        {
          "indexed": false,
          "internalType": "address",
          "name": "voter",
          "type": "address"
        },
        {
          "indexed": false,
          "internalType": "uint256",
          "name": "votingPower",
          "type": "uint256"
        }
      ],
      "name": "VoteAdded",
      "type": "event"
    },
    {
      "stateMutability": "payable",
      "type": "fallback"
    },
    {
      "inputs": [],
      "name": "MAX_OPTIONS_PER_PROPOSAL",
      "outputs": [
        {
          "internalType": "uint8",
          "name": "",
          "type": "uint8"
        }
      ],
      "stateMutability": "view",
      "type": "function"
    },
    {
      "inputs": [],
      "name": "activeProposalsNow",
      "outputs": [
        {
          "internalType": "uint256",
          "name": "",
          "type": "uint256"
        }
      ],
      "stateMutability": "view",
      "type": "function"
    },
    {
      "inputs": [
        {
          "internalType": "address[]",
          "name": "to",
          "type": "address[]"
        },
        {
          "internalType": "bytes[]",
          "name": "data",
          "type": "bytes[]"
        },
        {
          "internalType": "uint256[]",
          "name": "value",
          "type": "uint256[]"
        },
        {
          "internalType": "uint256",
          "name": "totalOptions",
          "type": "uint256"
        },
        {
          "internalType": "string",
          "name": "title",
          "type": "string"
        },
        {
          "internalType": "string",
          "name": "contentHash",
          "type": "string"
        }
      ],
      "name": "createProposal",
      "outputs": [
        {
          "internalType": "bytes32",
          "name": "",
          "type": "bytes32"
        }
      ],
      "stateMutability": "nonpayable",
      "type": "function"
    },
    {
      "inputs": [
        {
          "internalType": "bytes32",
          "name": "proposalId",
          "type": "bytes32"
        }
      ],
      "name": "endProposal",
      "outputs": [],
      "stateMutability": "nonpayable",
      "type": "function"
    },
    {
      "inputs": [],
      "name": "getActiveProposalsNow",
      "outputs": [
        {
          "internalType": "uint256",
          "name": "",
          "type": "uint256"
        }
      ],
      "stateMutability": "view",
      "type": "function"
    },
    {
      "inputs": [],
      "name": "getCurrentSnapshotId",
      "outputs": [
        {
          "internalType": "uint256",
          "name": "",
          "type": "uint256"
        }
      ],
      "stateMutability": "view",
      "type": "function"
    },
    {
      "inputs": [],
      "name": "getLockTime",
      "outputs": [
        {
          "internalType": "uint256",
          "name": "",
          "type": "uint256"
        }
      ],
      "stateMutability": "view",
      "type": "function"
    },
    {
      "inputs": [],
      "name": "getMaxActiveProposals",
      "outputs": [
        {
          "internalType": "uint256",
          "name": "",
          "type": "uint256"
        }
      ],
      "stateMutability": "view",
      "type": "function"
    },
    {
      "inputs": [],
      "name": "getMaxGasPrice",
      "outputs": [
        {
          "internalType": "uint256",
          "name": "",
          "type": "uint256"
        }
      ],
      "stateMutability": "view",
      "type": "function"
    },
    {
      "inputs": [],
      "name": "getMinimumMembersForProposalCreation",
      "outputs": [
        {
          "internalType": "uint256",
          "name": "",
          "type": "uint256"
        }
      ],
      "stateMutability": "view",
      "type": "function"
    },
    {
      "inputs": [],
      "name": "getMinimumTokensLockedForProposalCreation",
      "outputs": [
        {
          "internalType": "uint256",
          "name": "",
          "type": "uint256"
        }
      ],
      "stateMutability": "view",
      "type": "function"
    },
    {
      "inputs": [],
      "name": "getName",
      "outputs": [
        {
          "internalType": "string",
          "name": "",
          "type": "string"
        }
      ],
      "stateMutability": "view",
      "type": "function"
    },
    {
      "inputs": [],
      "name": "getPermissionRegistry",
      "outputs": [
        {
          "internalType": "address",
          "name": "",
          "type": "address"
        }
      ],
      "stateMutability": "view",
      "type": "function"
    },
    {
      "inputs": [
        {
          "internalType": "bytes32",
          "name": "proposalId",
          "type": "bytes32"
        }
      ],
      "name": "getProposal",
      "outputs": [
        {
          "components": [
            {
              "internalType": "address",
              "name": "creator",
              "type": "address"
            },
            {
              "internalType": "uint256",
              "name": "startTime",
              "type": "uint256"
            },
            {
              "internalType": "uint256",
              "name": "endTime",
              "type": "uint256"
            },
            {
              "internalType": "address[]",
              "name": "to",
              "type": "address[]"
            },
            {
              "internalType": "bytes[]",
              "name": "data",
              "type": "bytes[]"
            },
            {
              "internalType": "uint256[]",
              "name": "value",
              "type": "uint256[]"
            },
            {
              "internalType": "string",
              "name": "title",
              "type": "string"
            },
            {
              "internalType": "string",
              "name": "contentHash",
              "type": "string"
            },
            {
              "internalType": "enum BaseERC20Guild.ProposalState",
              "name": "state",
              "type": "uint8"
            },
            {
              "internalType": "uint256[]",
              "name": "totalVotes",
              "type": "uint256[]"
            }
          ],
          "internalType": "struct BaseERC20Guild.Proposal",
          "name": "",
          "type": "tuple"
        }
      ],
      "stateMutability": "view",
      "type": "function"
    },
    {
      "inputs": [
        {
          "internalType": "bytes32",
          "name": "proposalId",
          "type": "bytes32"
        }
      ],
      "name": "getProposalSnapshotId",
      "outputs": [
        {
          "internalType": "uint256",
          "name": "",
          "type": "uint256"
        }
      ],
      "stateMutability": "view",
      "type": "function"
    },
    {
      "inputs": [],
      "name": "getProposalTime",
      "outputs": [
        {
          "internalType": "uint256",
          "name": "",
          "type": "uint256"
        }
      ],
      "stateMutability": "view",
      "type": "function"
    },
    {
      "inputs": [
        {
          "internalType": "bytes32",
          "name": "proposalId",
          "type": "bytes32"
        },
        {
          "internalType": "address",
          "name": "voter",
          "type": "address"
        }
      ],
      "name": "getProposalVotesOfVoter",
      "outputs": [
        {
          "internalType": "uint256",
          "name": "option",
          "type": "uint256"
        },
        {
          "internalType": "uint256",
          "name": "votingPower",
          "type": "uint256"
        }
      ],
      "stateMutability": "view",
      "type": "function"
    },
    {
      "inputs": [],
      "name": "getProposalsIds",
      "outputs": [
        {
          "internalType": "bytes32[]",
          "name": "",
          "type": "bytes32[]"
        }
      ],
      "stateMutability": "view",
      "type": "function"
    },
    {
      "inputs": [],
      "name": "getProposalsIdsLength",
      "outputs": [
        {
          "internalType": "uint256",
          "name": "",
          "type": "uint256"
        }
      ],
      "stateMutability": "view",
      "type": "function"
    },
    {
      "inputs": [
        {
          "internalType": "bytes32",
          "name": "signedVoteHash",
          "type": "bytes32"
        }
      ],
      "name": "getSignedVote",
      "outputs": [
        {
          "internalType": "bool",
          "name": "",
          "type": "bool"
        }
      ],
      "stateMutability": "view",
      "type": "function"
    },
    {
      "inputs": [],
      "name": "getTimeForExecution",
      "outputs": [
        {
          "internalType": "uint256",
          "name": "",
          "type": "uint256"
        }
      ],
      "stateMutability": "view",
      "type": "function"
    },
    {
      "inputs": [],
      "name": "getToken",
      "outputs": [
        {
          "internalType": "address",
          "name": "",
          "type": "address"
        }
      ],
      "stateMutability": "view",
      "type": "function"
    },
    {
      "inputs": [],
      "name": "getTokenVault",
      "outputs": [
        {
          "internalType": "address",
          "name": "",
          "type": "address"
        }
      ],
      "stateMutability": "view",
      "type": "function"
    },
    {
      "inputs": [],
      "name": "getTotalLocked",
      "outputs": [
        {
          "internalType": "uint256",
          "name": "",
          "type": "uint256"
        }
      ],
      "stateMutability": "view",
      "type": "function"
    },
    {
      "inputs": [],
      "name": "getTotalMembers",
      "outputs": [
        {
          "internalType": "uint256",
          "name": "",
          "type": "uint256"
        }
      ],
      "stateMutability": "view",
      "type": "function"
    },
    {
      "inputs": [],
      "name": "getTotalProposals",
      "outputs": [
        {
          "internalType": "uint256",
          "name": "",
          "type": "uint256"
        }
      ],
      "stateMutability": "view",
      "type": "function"
    },
    {
      "inputs": [],
      "name": "getVoteGas",
      "outputs": [
        {
          "internalType": "uint256",
          "name": "",
          "type": "uint256"
        }
      ],
      "stateMutability": "view",
      "type": "function"
    },
    {
      "inputs": [
        {
          "internalType": "address",
          "name": "voter",
          "type": "address"
        }
      ],
      "name": "getVoterLockTimestamp",
      "outputs": [
        {
          "internalType": "uint256",
          "name": "",
          "type": "uint256"
        }
      ],
      "stateMutability": "view",
      "type": "function"
    },
    {
      "inputs": [],
      "name": "getVotingPowerForProposalCreation",
      "outputs": [
        {
          "internalType": "uint256",
          "name": "",
          "type": "uint256"
        }
      ],
      "stateMutability": "view",
      "type": "function"
    },
    {
      "inputs": [],
      "name": "getVotingPowerForProposalExecution",
      "outputs": [
        {
          "internalType": "uint256",
          "name": "",
          "type": "uint256"
        }
      ],
      "stateMutability": "view",
      "type": "function"
    },
    {
      "inputs": [
        {
          "internalType": "uint256",
          "name": "snapshotId",
          "type": "uint256"
        }
      ],
      "name": "getVotingPowerForProposalExecution",
      "outputs": [
        {
          "internalType": "uint256",
          "name": "",
          "type": "uint256"
        }
      ],
      "stateMutability": "view",
      "type": "function"
    },
    {
      "inputs": [
        {
          "internalType": "address",
          "name": "voter",
          "type": "address"
        },
        {
          "internalType": "bytes32",
          "name": "proposalId",
          "type": "bytes32"
        },
        {
          "internalType": "uint256",
          "name": "option",
          "type": "uint256"
        },
        {
          "internalType": "uint256",
          "name": "votingPower",
          "type": "uint256"
        }
      ],
      "name": "hashVote",
      "outputs": [
        {
          "internalType": "bytes32",
          "name": "",
          "type": "bytes32"
        }
      ],
      "stateMutability": "pure",
      "type": "function"
    },
    {
      "inputs": [
        {
          "internalType": "address",
          "name": "_token",
          "type": "address"
        },
        {
          "internalType": "uint256",
          "name": "_proposalTime",
          "type": "uint256"
        },
        {
          "internalType": "uint256",
          "name": "_timeForExecution",
          "type": "uint256"
        },
        {
          "internalType": "uint256",
          "name": "_votingPowerPercentageForProposalExecution",
          "type": "uint256"
        },
        {
          "internalType": "uint256",
          "name": "_votingPowerPercentageForProposalCreation",
          "type": "uint256"
        },
        {
          "internalType": "string",
          "name": "_name",
          "type": "string"
        },
        {
          "internalType": "uint256",
          "name": "_voteGas",
          "type": "uint256"
        },
        {
          "internalType": "uint256",
          "name": "_maxGasPrice",
          "type": "uint256"
        },
        {
          "internalType": "uint256",
          "name": "_maxActiveProposals",
          "type": "uint256"
        },
        {
          "internalType": "uint256",
          "name": "_lockTime",
          "type": "uint256"
        },
        {
          "internalType": "address",
          "name": "_permissionRegistry",
          "type": "address"
        }
      ],
      "name": "initialize",
      "outputs": [],
      "stateMutability": "nonpayable",
      "type": "function"
    },
    {
      "inputs": [],
      "name": "lockTime",
      "outputs": [
        {
          "internalType": "uint256",
          "name": "",
          "type": "uint256"
        }
      ],
      "stateMutability": "view",
      "type": "function"
    },
    {
      "inputs": [
        {
          "internalType": "uint256",
          "name": "tokenAmount",
          "type": "uint256"
        }
      ],
      "name": "lockTokens",
      "outputs": [],
      "stateMutability": "nonpayable",
      "type": "function"
    },
    {
      "inputs": [],
      "name": "maxActiveProposals",
      "outputs": [
        {
          "internalType": "uint256",
          "name": "",
          "type": "uint256"
        }
      ],
      "stateMutability": "view",
      "type": "function"
    },
    {
      "inputs": [],
      "name": "maxGasPrice",
      "outputs": [
        {
          "internalType": "uint256",
          "name": "",
          "type": "uint256"
        }
      ],
      "stateMutability": "view",
      "type": "function"
    },
    {
      "inputs": [],
      "name": "minimumMembersForProposalCreation",
      "outputs": [
        {
          "internalType": "uint256",
          "name": "",
          "type": "uint256"
        }
      ],
      "stateMutability": "view",
      "type": "function"
    },
    {
      "inputs": [],
      "name": "minimumTokensLockedForProposalCreation",
      "outputs": [
        {
          "internalType": "uint256",
          "name": "",
          "type": "uint256"
        }
      ],
      "stateMutability": "view",
      "type": "function"
    },
    {
      "inputs": [],
      "name": "name",
      "outputs": [
        {
          "internalType": "string",
          "name": "",
          "type": "string"
        }
      ],
      "stateMutability": "view",
      "type": "function"
    },
    {
      "inputs": [],
      "name": "proposalTime",
      "outputs": [
        {
          "internalType": "uint256",
          "name": "",
          "type": "uint256"
        }
      ],
      "stateMutability": "view",
      "type": "function"
    },
    {
      "inputs": [
        {
          "internalType": "bytes32",
          "name": "",
          "type": "bytes32"
        },
        {
          "internalType": "address",
          "name": "",
          "type": "address"
        }
      ],
      "name": "proposalVotes",
      "outputs": [
        {
          "internalType": "uint256",
          "name": "option",
          "type": "uint256"
        },
        {
          "internalType": "uint256",
          "name": "votingPower",
          "type": "uint256"
        }
      ],
      "stateMutability": "view",
      "type": "function"
    },
    {
      "inputs": [
        {
          "internalType": "bytes32",
          "name": "",
          "type": "bytes32"
        }
      ],
      "name": "proposals",
      "outputs": [
        {
          "internalType": "address",
          "name": "creator",
          "type": "address"
        },
        {
          "internalType": "uint256",
          "name": "startTime",
          "type": "uint256"
        },
        {
          "internalType": "uint256",
          "name": "endTime",
          "type": "uint256"
        },
        {
          "internalType": "string",
          "name": "title",
          "type": "string"
        },
        {
          "internalType": "string",
          "name": "contentHash",
          "type": "string"
        },
        {
          "internalType": "enum BaseERC20Guild.ProposalState",
          "name": "state",
          "type": "uint8"
        }
      ],
      "stateMutability": "view",
      "type": "function"
    },
    {
      "inputs": [
        {
          "internalType": "uint256",
          "name": "",
          "type": "uint256"
        }
      ],
      "name": "proposalsIds",
      "outputs": [
        {
          "internalType": "bytes32",
          "name": "",
          "type": "bytes32"
        }
      ],
      "stateMutability": "view",
      "type": "function"
    },
    {
      "inputs": [
        {
          "internalType": "bytes32",
          "name": "",
          "type": "bytes32"
        }
      ],
      "name": "proposalsSnapshots",
      "outputs": [
        {
          "internalType": "uint256",
          "name": "",
          "type": "uint256"
        }
      ],
      "stateMutability": "view",
      "type": "function"
    },
    {
      "inputs": [
        {
          "internalType": "uint256",
          "name": "_proposalTime",
          "type": "uint256"
        },
        {
          "internalType": "uint256",
          "name": "_timeForExecution",
          "type": "uint256"
        },
        {
          "internalType": "uint256",
          "name": "_votingPowerPercentageForProposalExecution",
          "type": "uint256"
        },
        {
          "internalType": "uint256",
          "name": "_votingPowerPercentageForProposalCreation",
          "type": "uint256"
        },
        {
          "internalType": "uint256",
          "name": "_voteGas",
          "type": "uint256"
        },
        {
          "internalType": "uint256",
          "name": "_maxGasPrice",
          "type": "uint256"
        },
        {
          "internalType": "uint256",
          "name": "_maxActiveProposals",
          "type": "uint256"
        },
        {
          "internalType": "uint256",
          "name": "_lockTime",
          "type": "uint256"
        },
        {
          "internalType": "uint256",
          "name": "_minimumMembersForProposalCreation",
          "type": "uint256"
        },
        {
          "internalType": "uint256",
          "name": "_minimumTokensLockedForProposalCreation",
          "type": "uint256"
        }
      ],
      "name": "setConfig",
      "outputs": [],
      "stateMutability": "nonpayable",
      "type": "function"
    },
    {
      "inputs": [
        {
          "internalType": "bytes32",
          "name": "proposalId",
          "type": "bytes32"
        },
        {
          "internalType": "uint256",
          "name": "option",
          "type": "uint256"
        },
        {
          "internalType": "uint256",
          "name": "votingPower",
          "type": "uint256"
        },
        {
          "internalType": "address",
          "name": "voter",
          "type": "address"
        },
        {
          "internalType": "bytes",
          "name": "signature",
          "type": "bytes"
        }
      ],
      "name": "setSignedVote",
      "outputs": [],
      "stateMutability": "nonpayable",
      "type": "function"
    },
    {
      "inputs": [
        {
          "internalType": "bytes32",
          "name": "proposalId",
          "type": "bytes32"
        },
        {
          "internalType": "uint256",
          "name": "option",
          "type": "uint256"
        },
        {
          "internalType": "uint256",
          "name": "votingPower",
          "type": "uint256"
        }
      ],
      "name": "setVote",
      "outputs": [],
      "stateMutability": "nonpayable",
      "type": "function"
    },
    {
      "inputs": [
        {
          "internalType": "bytes32",
          "name": "",
          "type": "bytes32"
        }
      ],
      "name": "signedVotes",
      "outputs": [
        {
          "internalType": "bool",
          "name": "",
          "type": "bool"
        }
      ],
      "stateMutability": "view",
      "type": "function"
    },
    {
      "inputs": [],
      "name": "timeForExecution",
      "outputs": [
        {
          "internalType": "uint256",
          "name": "",
          "type": "uint256"
        }
      ],
      "stateMutability": "view",
      "type": "function"
    },
    {
      "inputs": [],
      "name": "token",
      "outputs": [
        {
          "internalType": "contract IERC20Upgradeable",
          "name": "",
          "type": "address"
        }
      ],
      "stateMutability": "view",
      "type": "function"
    },
    {
      "inputs": [],
      "name": "tokenVault",
      "outputs": [
        {
          "internalType": "contract TokenVault",
          "name": "",
          "type": "address"
        }
      ],
      "stateMutability": "view",
      "type": "function"
    },
    {
      "inputs": [
        {
          "internalType": "address",
          "name": "",
          "type": "address"
        }
      ],
      "name": "tokensLocked",
      "outputs": [
        {
          "internalType": "uint256",
          "name": "amount",
          "type": "uint256"
        },
        {
          "internalType": "uint256",
          "name": "timestamp",
          "type": "uint256"
        }
      ],
      "stateMutability": "view",
      "type": "function"
    },
    {
      "inputs": [],
      "name": "totalLocked",
      "outputs": [
        {
          "internalType": "uint256",
          "name": "",
          "type": "uint256"
        }
      ],
      "stateMutability": "view",
      "type": "function"
    },
    {
      "inputs": [
        {
          "internalType": "uint256",
          "name": "snapshotId",
          "type": "uint256"
        }
      ],
      "name": "totalLockedAt",
      "outputs": [
        {
          "internalType": "uint256",
          "name": "",
          "type": "uint256"
        }
      ],
      "stateMutability": "view",
      "type": "function"
    },
    {
      "inputs": [],
      "name": "totalProposals",
      "outputs": [
        {
          "internalType": "uint256",
          "name": "",
          "type": "uint256"
        }
      ],
      "stateMutability": "view",
      "type": "function"
    },
    {
      "inputs": [],
      "name": "voteGas",
      "outputs": [
        {
          "internalType": "uint256",
          "name": "",
          "type": "uint256"
        }
      ],
      "stateMutability": "view",
      "type": "function"
    },
    {
      "inputs": [
        {
          "internalType": "address",
          "name": "account",
          "type": "address"
        }
      ],
      "name": "votingPowerOf",
      "outputs": [
        {
          "internalType": "uint256",
          "name": "",
          "type": "uint256"
        }
      ],
      "stateMutability": "view",
      "type": "function"
    },
    {
      "inputs": [
        {
          "internalType": "address",
          "name": "account",
          "type": "address"
        },
        {
          "internalType": "uint256",
          "name": "snapshotId",
          "type": "uint256"
        }
      ],
      "name": "votingPowerOfAt",
      "outputs": [
        {
          "internalType": "uint256",
          "name": "",
          "type": "uint256"
        }
      ],
      "stateMutability": "view",
      "type": "function"
    },
    {
      "inputs": [
        {
          "internalType": "address[]",
          "name": "accounts",
          "type": "address[]"
        },
        {
          "internalType": "uint256[]",
          "name": "snapshotIds",
          "type": "uint256[]"
        }
      ],
      "name": "votingPowerOfMultipleAt",
      "outputs": [
        {
          "internalType": "uint256[]",
          "name": "",
          "type": "uint256[]"
        }
      ],
      "stateMutability": "view",
      "type": "function"
    },
    {
      "inputs": [],
      "name": "votingPowerPercentageForProposalCreation",
      "outputs": [
        {
          "internalType": "uint256",
          "name": "",
          "type": "uint256"
        }
      ],
      "stateMutability": "view",
      "type": "function"
    },
    {
      "inputs": [],
      "name": "votingPowerPercentageForProposalExecution",
      "outputs": [
        {
          "internalType": "uint256",
          "name": "",
          "type": "uint256"
        }
      ],
      "stateMutability": "view",
      "type": "function"
    },
    {
      "inputs": [
        {
          "internalType": "uint256",
          "name": "tokenAmount",
          "type": "uint256"
        }
      ],
      "name": "withdrawTokens",
      "outputs": [],
      "stateMutability": "nonpayable",
      "type": "function"
    }
  ],
  "bytecode": "0x60806040526001601c5534801561001557600080fd5b506153d5806100256000396000f3fe608060405260043610620003d95760003560e01c80635e508c2c1162000203578063b3929aaa1162000117578063e158080a11620000a7578063f98606a71162000075578063f98606a71462000bf8578063f9a92d821462000c10578063fc0c546a1462000c35578063fc4e703f1462000c5757005b8063e158080a1462000b61578063ed996f5e1462000b79578063f09951981462000b9e578063f4732da61462000be157005b8063bcc3f3bd11620000e5578063bcc3f3bd1462000ae1578063c0a4d64d1462000b1b578063c93e01e31462000b32578063e04503531462000b4957005b8063b3929aaa1462000a5b578063b3b470611462000a80578063b7c15f8d1462000aa5578063bba363a01462000abc57005b80638f1803051162000193578063a7aeb5571162000161578063a7aeb55714620009e0578063ad6c1e3414620009f8578063adf2c7b61462000a0f578063ae6192341462000a4357005b80638f180305146200096c57806392b716541462000983578063a16fe34214620009a8578063a78d80fc14620009c857005b80637189354611620001d15780637189354614620008d957806377027ff4146200090a5780638029eff1146200092157806389c98c06146200095557005b80635e508c2c146200086e57806364fe6ed214620008865780636c8b72f6146200089d5780636e27d88914620008b457005b80632467ef9411620002fb5780633bf353fb116200028b5780635439ad8611620002595780635439ad8614620007fd57806354f2f7af14620008145780635689141214620008345780635bc789d9146200084c57005b80633bf353fb14620007815780633de39c1114620007995780633f10cf1514620007b1578063430694cf14620007c957005b80632fd99c0011620002c95780632fd99c0014620006b9578063315a095d14620006fe57806332ed5b12146200072357806336f8f8d9146200075c57005b80632467ef94146200061657806325c069fc146200062d5780632d5b17de14620006575780632d757c3e146200067c57005b806313108d7411620003775780631a5007dd11620003455780631a5007dd146200058357806321df0da7146200059a5780632229a0e214620005ce57806322bafdff14620005e557005b806313108d74146200050957806316bbecde146200052e57806317d7de7c1462000553578063184a0ae9146200056b57005b80630a366a6311620003b55780630a366a6314620004805780630d66808714620004a7578063123f6d6714620004bf578063130485fe14620004e457005b80623a40d014620003db57806301a598a6146200040b57806306fdde031462000459575b005b348015620003e857600080fd5b50620003f362000c6f565b60405162000402919062003cc6565b60405180910390f35b3480156200041857600080fd5b50620004436200042a36600462003d24565b6012602052600090815260409020805460019091015482565b6040805192835260208301919091520162000402565b3480156200046657600080fd5b506200047162000cc9565b60405162000402919062003d8a565b3480156200048d57600080fd5b506200049862000d5f565b60405190815260200162000402565b348015620004b457600080fd5b5062000498600d5481565b348015620004cc57600080fd5b50620003d9620004de36600462003d9f565b62000d8e565b348015620004f157600080fd5b50620004436200050336600462003e08565b62000f27565b3480156200051657600080fd5b506200049862000528366004620040a5565b62000f59565b3480156200053b57600080fd5b50620003d96200054d3660046200418f565b62000f9e565b3480156200056057600080fd5b5062000471620010cf565b3480156200057857600080fd5b506200049860035481565b3480156200059057600080fd5b50600a5462000498565b348015620005a757600080fd5b506000546001600160a01b03165b6040516001600160a01b03909116815260200162000402565b348015620005db57600080fd5b5060165462000498565b348015620005f257600080fd5b506200049862000604366004620041bc565b60009081526018602052604090205490565b3480156200062357600080fd5b50600c5462000498565b3480156200063a57600080fd5b5062000644600a81565b60405160ff909116815260200162000402565b3480156200066457600080fd5b50620003d962000676366004620041d6565b62001160565b3480156200068957600080fd5b50620004986200069b36600462003d24565b6001600160a01b031660009081526012602052604090206001015490565b348015620006c657600080fd5b50620006ed620006d8366004620041bc565b60136020526000908152604090205460ff1681565b604051901515815260200162000402565b3480156200070b57600080fd5b50620003d96200071d366004620041bc565b62001445565b3480156200073057600080fd5b506200074862000742366004620041bc565b620016ea565b604051620004029695949392919062004280565b3480156200076957600080fd5b50620003d96200077b366004620042e0565b6200184e565b3480156200078e57600080fd5b5062000498600c5481565b348015620007a657600080fd5b506200049860085481565b348015620007be57600080fd5b506200049860045481565b348015620007d657600080fd5b50620007ee620007e8366004620041bc565b62001ab4565b60405162000402919062004468565b3480156200080a57600080fd5b50601c5462000498565b3480156200082157600080fd5b506011546001600160a01b0316620005b5565b3480156200084157600080fd5b5062000498600e5481565b3480156200085957600080fd5b50601154620005b5906001600160a01b031681565b3480156200087b57600080fd5b506200049860055481565b3480156200089357600080fd5b5060105462000498565b348015620008aa57600080fd5b5060075462000498565b348015620008c157600080fd5b50620003d9620008d3366004620041bc565b62001e67565b348015620008e657600080fd5b5062000498620008f8366004620041bc565b60186020526000908152604090205481565b3480156200091757600080fd5b5060095462000498565b3480156200092e57600080fd5b50620006ed62000940366004620041bc565b60009081526013602052604090205460ff1690565b3480156200096257600080fd5b5060085462000498565b3480156200097957600080fd5b50600b5462000498565b3480156200099057600080fd5b5062000498620009a236600462004575565b6200201e565b348015620009b557600080fd5b506001546001600160a01b0316620005b5565b348015620009d557600080fd5b5062000498600a5481565b348015620009ed57600080fd5b5062000498600f5481565b34801562000a0557600080fd5b50600f5462000498565b34801562000a1c57600080fd5b5062000a3462000a2e366004620045b1565b62002075565b6040516200040291906200461c565b34801562000a5057600080fd5b5062000498620021db565b34801562000a6857600080fd5b506200049862000a7a366004620041bc565b620021ed565b34801562000a8d57600080fd5b50620003d962000a9f366004620041bc565b6200220f565b34801562000ab257600080fd5b5060045462000498565b34801562000ac957600080fd5b506200049862000adb366004620041bc565b62002af9565b34801562000aee57600080fd5b506200049862000b0036600462003d24565b6001600160a01b031660009081526012602052604090205490565b34801562000b2857600080fd5b50600d5462000498565b34801562000b3f57600080fd5b5060035462000498565b34801562000b5657600080fd5b506200049860095481565b34801562000b6e57600080fd5b506200049860105481565b34801562000b8657600080fd5b506200049862000b98366004620041bc565b62002b22565b34801562000bab57600080fd5b506200044362000bbd36600462003e08565b60146020908152600092835260408084209091529082529020805460019091015482565b34801562000bee57600080fd5b50600e5462000498565b34801562000c0557600080fd5b506200049860065481565b34801562000c1d57600080fd5b506200049862000c2f36600462004631565b62002b51565b34801562000c4257600080fd5b50600054620005b5906001600160a01b031681565b34801562000c6457600080fd5b506200049860075481565b6060601680548060200260200160405190810160405280929190818152602001828054801562000cbf57602002820191906000526020600020905b81548152602001906001019080831162000caa575b5050505050905090565b6002805462000cd8906200465e565b80601f016020809104026020016040519081016040528092919081815260200182805462000d06906200465e565b801562000d575780601f1062000d2b5761010080835404028352916020019162000d57565b820191906000526020600020905b81548152906001019060200180831162000d3957829003601f168201915b505050505081565b600061271060065462000d71600e5490565b62000d7d9190620046b0565b62000d899190620046e0565b905090565b33301462000e145760405162461bcd60e51b815260206004820152604260248201527f45524332304775696c643a204f6e6c792063616c6c61626c652062792045524360448201527f32306775696c6420697473656c66206f72207768656e20696e697469616c697a606482015261195960f21b608482015260a4015b60405180910390fd5b60008a1162000e375760405162461bcd60e51b815260040162000e0b90620046f7565b8983101562000e5a5760405162461bcd60e51b815260040162000e0b9062004746565b6000881162000e7d5760405162461bcd60e51b815260040162000e0b90620047a3565b6201c90886111562000ef85760405162461bcd60e51b815260206004820152603960248201527f45524332304775696c643a20766f7465206761732068617320746f206265206560448201527f7175616c206f72206c6f776572207468616e2031313730303000000000000000606482015260840162000e0b565b600399909955600497909755600595909555600693909355600791909155600855600955600d55600f55601055565b60008281526014602090815260408083206001600160a01b0385168452909152902080546001909101545b9250929050565b60008062000f6c88888888888862002bb3565b601c5490915062000f7f9060016200318a565b601c819055600082815260186020526040902055979650505050505050565b600083815260156020526040902060020154421062000fd15760405162461bcd60e51b815260040162000e0b9062004800565b600083815260186020526040902054819062000fef90339062002b51565b1015620010105760405162461bcd60e51b815260040162000e0b9062004853565b60008381526014602090815260408083203384529091529020541580156200105257506000838152601460209081526040808320338452909152902060010154155b806200109d57506000838152601460209081526040808320338452909152902054821480156200109d5750600083815260146020908152604080832033845290915290206001015481115b620010bc5760405162461bcd60e51b815260040162000e0b90620048a1565b620010ca338484846200319f565b505050565b606060028054620010e0906200465e565b80601f01602080910402602001604051908101604052809291908181526020018280546200110e906200465e565b801562000cbf5780601f10620011335761010080835404028352916020019162000cbf565b820191906000526020600020905b8154815290600101906020018083116200114157509395945050505050565b6000858152601560205260409020600201544210620011935760405162461bcd60e51b815260040162000e0b9062004800565b6000620011a3838787876200201e565b60008181526013602052604090205490915060ff1615620012115760405162461bcd60e51b815260206004820152602160248201527f536e617073686f7445524332304775696c643a20416c726561647920766f74656044820152601960fa1b606482015260840162000e0b565b62001275826200126e836040517f19457468657265756d205369676e6564204d6573736167653a0a3332000000006020820152603c8101829052600090605c01604051602081830303815290604052805190602001209050919050565b90620033fb565b6001600160a01b0316836001600160a01b031614620012d75760405162461bcd60e51b815260206004820181905260248201527f536e617073686f7445524332304775696c643a2057726f6e67207369676e6572604482015260640162000e0b565b6000818152601360209081526040808320805460ff19166001179055888352601890915290205484906200130d90859062002b51565b1015801562001340575060008681526014602090815260408083206001600160a01b038716845290915290206001015484115b6200135f5760405162461bcd60e51b815260040162000e0b9062004853565b60008681526014602090815260408083206001600160a01b0387168452909152902054158015620013b3575060008681526014602090815260408083206001600160a01b0387168452909152902060010154155b8062001410575060008681526014602090815260408083206001600160a01b03871684529091529020548514801562001410575060008681526014602090815260408083206001600160a01b038716845290915290206001015484115b6200142f5760405162461bcd60e51b815260040162000e0b90620048a1565b6200143d838787876200319f565b505050505050565b33600090815260126020526040902054811115620014cc5760405162461bcd60e51b815260206004820152603e60248201527f536e617073686f7445524332304775696c643a20556e61626c6520746f20776960448201527f746864726177206d6f726520746f6b656e73207468616e206c6f636b65640000606482015260840162000e0b565b3360009081526012602052604090206001015442116200153f5760405162461bcd60e51b815260206004820152602760248201527f536e617073686f7445524332304775696c643a20546f6b656e73207374696c6c604482015266081b1bd8dad95960ca1b606482015260840162000e0b565b60008111620015c75760405162461bcd60e51b815260206004820152604760248201527f536e617073686f7445524332304775696c643a20616d6f756e74206f6620746f60448201527f6b656e7320746f207769746864726177206d75737420626520677265617465726064820152660207468616e20360cc1b608482015260a40162000e0b565b620015d2336200341b565b620015dc6200344e565b33600090815260126020526040902054620015f890826200345f565b33600090815260126020526040902055600e546200161790826200345f565b600e5560115460405163f3fef3a360e01b8152336004820152602481018390526001600160a01b039091169063f3fef3a390604401600060405180830381600087803b1580156200166757600080fd5b505af11580156200167c573d6000803e3d6000fd5b50503360009081526012602052604081205490039150620016ad905057600b54620016a99060016200345f565b600b555b60408051338152602081018390527f6352c5382c4a4578e712449ca65e83cdb392d045dfcf1cad9615189db2da244b91015b60405180910390a150565b60156020526000908152604090208054600182015460028301546006840180546001600160a01b0390941694929391929162001726906200465e565b80601f016020809104026020016040519081016040528092919081815260200182805462001754906200465e565b8015620017a55780601f106200177957610100808354040283529160200191620017a5565b820191906000526020600020905b8154815290600101906020018083116200178757829003601f168201915b505050505090806007018054620017bc906200465e565b80601f0160208091040260200160405190810160405280929190818152602001828054620017ea906200465e565b80156200183b5780601f106200180f576101008083540402835291602001916200183b565b820191906000526020600020905b8154815290600101906020018083116200181d57829003601f168201915b5050506008909301549192505060ff1686565b60175462010000900460ff16806200186e5750601754610100900460ff16155b620018d35760405162461bcd60e51b815260206004820152602e60248201527f496e697469616c697a61626c653a20636f6e747261637420697320616c72656160448201526d191e481a5b9a5d1a585b1a5e995960921b606482015260840162000e0b565b60175462010000900460ff16158015620018f9576017805462ffff001916620101001790555b6001600160a01b038c16620019605760405162461bcd60e51b815260206004820152602660248201527f45524332304775696c643a20746f6b656e2063616e74206265207a65726f206160448201526564647265737360d01b606482015260840162000e0b565b60008b11620019835760405162461bcd60e51b815260040162000e0b90620046f7565b8a831015620019a65760405162461bcd60e51b815260040162000e0b9062004746565b60008911620019c95760405162461bcd60e51b815260040162000e0b90620047a3565b6002620019d788826200495a565b50600080546001600160a01b0319166001600160a01b038e16908117909155604051309062001a069062003ad0565b6001600160a01b03928316815291166020820152604001604051809103906000f08015801562001a3a573d6000803e3d6000fd5b50601180546001600160a01b03199081166001600160a01b039384161790915560038d905560048c905560058b905560068a9055600788905560088790556009869055600d85905560018054909116918416919091179055801562001aa6576017805462ff0000191690555b505050505050505050505050565b62001abe62003ade565b60008281526015602090815260409182902082516101408101845281546001600160a01b03168152600182015481840152600282015481850152600382018054855181860281018601909652808652919492936060860193929083018282801562001b5357602002820191906000526020600020905b81546001600160a01b0316815260019091019060200180831162001b34575b5050505050815260200160048201805480602002602001604051908101604052809291908181526020016000905b8282101562001c3757838290600052602060002001805462001ba3906200465e565b80601f016020809104026020016040519081016040528092919081815260200182805462001bd1906200465e565b801562001c225780601f1062001bf65761010080835404028352916020019162001c22565b820191906000526020600020905b81548152906001019060200180831162001c0457829003601f168201915b50505050508152602001906001019062001b81565b5050505081526020016005820180548060200260200160405190810160405280929190818152602001828054801562001c9057602002820191906000526020600020905b81548152602001906001019080831162001c7b575b5050505050815260200160068201805462001cab906200465e565b80601f016020809104026020016040519081016040528092919081815260200182805462001cd9906200465e565b801562001d2a5780601f1062001cfe5761010080835404028352916020019162001d2a565b820191906000526020600020905b81548152906001019060200180831162001d0c57829003601f168201915b5050505050815260200160078201805462001d45906200465e565b80601f016020809104026020016040519081016040528092919081815260200182805462001d73906200465e565b801562001dc45780601f1062001d985761010080835404028352916020019162001dc4565b820191906000526020600020905b81548152906001019060200180831162001da657829003601f168201915b5050509183525050600882015460209091019060ff16600481111562001dee5762001dee62004247565b600481111562001e025762001e0262004247565b81526020016009820180548060200260200160405190810160405280929190818152602001828054801562001e5757602002820191906000526020600020905b81548152602001906001019080831162001e42575b5050505050815250509050919050565b6000811162001edf5760405162461bcd60e51b815260206004820152603a60248201527f536e617073686f7445524332304775696c643a20546f6b656e7320746f206c6f60448201527f636b2073686f756c6420626520686967686572207468616e2030000000000000606482015260840162000e0b565b33600090815260126020526040812054900362001f0a57600b5462001f069060016200318a565b600b555b62001f15336200341b565b62001f1f6200344e565b6011546040516311f9fbc960e21b8152336004820152602481018390526001600160a01b03909116906347e7ef2490604401600060405180830381600087803b15801562001f6c57600080fd5b505af115801562001f81573d6000803e3d6000fd5b50503360009081526012602052604090205462001fa292509050826200318a565b33600090815260126020526040902055600d5462001fc29042906200318a565b33600090815260126020526040902060010155600e5462001fe490826200318a565b600e5560408051338152602081018390527fac87f20a77d28ee8bbb58ec87ea8fa968b3393efae1a368fd50b767c2847391c9101620016df565b6040516bffffffffffffffffffffffff19606086901b166020820152603481018490526054810183905260748101829052600090609401604051602081830303815290604052805190602001209050949350505050565b60608151835114620020ff5760405162461bcd60e51b815260206004820152604660248201527f536e617073686f7445524332304775696c643a20536e617073686f744964732060448201527f616e64206163636f756e7473206d7573742068617665207468652073616d65206064820152650d8cadccee8d60d31b608482015260a40162000e0b565b6000835167ffffffffffffffff8111156200211e576200211e62003e37565b60405190808252806020026020018201604052801562002148578160200160208202803683370190505b50905060005b8451811015620021d1576200219c85828151811062002171576200217162004a27565b60200260200101518583815181106200218e576200218e62004a27565b602002602001015162002b51565b828281518110620021b157620021b162004a27565b602090810291909101015280620021c88162004a3d565b9150506200214e565b5090505b92915050565b600061271060055462000d71600e5490565b60168181548110620021fe57600080fd5b600091825260209091200154905081565b60175460ff1615620022795760405162461bcd60e51b815260206004820152602c60248201527f536e617073686f7445524332304775696c643a2050726f706f73616c20756e6460448201526b32b91032bc32b1baba34b7b760a11b606482015260840162000e0b565b600160008281526015602052604090206008015460ff166004811115620022a457620022a462004247565b14620023095760405162461bcd60e51b815260206004820152602d60248201527f536e617073686f7445524332304775696c643a2050726f706f73616c20616c7260448201526c1958591e48195e1958dd5d1959609a1b606482015260840162000e0b565b6000818152601560205260409020600201544211620023815760405162461bcd60e51b815260206004820152602d60248201527f536e617073686f7445524332304775696c643a2050726f706f73616c2068617360448201526c1b89dd08195b991959081e595d609a1b606482015260840162000e0b565b6000805b6000838152601560205260409020600901548110156200247b57600083815260186020526040902054620023b99062002af9565b6000848152601560205260409020600901805483908110620023df57620023df62004a27565b9060005260206000200154101580156200245c575060008381526015602052604090206009018054839081106200241a576200241a62004a27565b90600052602060002001546015600085815260200190815260200160002060090182815481106200244f576200244f62004a27565b9060005260206000200154115b1562002466578091505b80620024728162004a3d565b91505062002385565b81600003620024ce576000838152601560205260409020600801805460ff19166002908117909155839060008051602062005380833981519152905b60405190815260200160405180910390a262002ae1565b6004546000848152601560205260409020600201544291620024f191906200318a565b101562002530576000838152601560205260409020600801805460ff1916600490811790915583906000805160206200538083398151915290620024b7565b600083815260156020526040812060088101805460ff19166003179055600901546200257c90620025639060016200345f565b600086815260156020526040902060030154906200346d565b9050620025976200258f8460016200345f565b82906200347b565b91506000620025a783836200318a565b9050600160009054906101000a90046001600160a01b03166001600160a01b0316633e7a47b26040518163ffffffff1660e01b8152600401600060405180830381600087803b158015620025fa57600080fd5b505af11580156200260f573d6000803e3d6000fd5b505050505b8083101562002a4857600085815260156020526040812060030180548590811062002643576200264362004a27565b6000918252602090912001546001600160a01b031614801590620026a35750600085815260156020526040812060040180548590811062002688576200268862004a27565b9060005260206000200180546200269f906200465e565b9050115b1562002a33576000858152601560205260408120600401805485908110620026cf57620026cf62004a27565b906000526020600020018054620026e6906200465e565b80601f016020809104026020016040519081016040528092919081815260200182805462002714906200465e565b8015620027655780601f10620027395761010080835404028352916020019162002765565b820191906000526020600020905b8154815290600101906020018083116200274757829003601f168201915b50505060208084015160015460008c815260159093526040909220600301805495965090946001600160a01b03909216935063eed470339250309189908110620027b357620027b362004a27565b9060005260206000200160009054906101000a90046001600160a01b031684601560008d81526020019081526020016000206005018a81548110620027fc57620027fc62004a27565b60009182526020909120015460405160e086901b6001600160e01b031990811682526001600160a01b039586166004830152939094166024850152911660448301526064820152608401600060405180830381600087803b1580156200286157600080fd5b505af192505050801562002873575060015b620028ce576200288262004a59565b806308c379a003620028c257506200289962004a76565b80620028a65750620028c4565b8060405162461bcd60e51b815260040162000e0b919062003d8a565b505b3d6000803e3d6000fd5b6017805460ff19166001179055600087815260156020526040812060030180548790811062002901576200290162004a27565b60009182526020808320909101548a83526015909152604090912060050180546001600160a01b03909216918890811062002940576200294062004a27565b9060005260206000200154601560008b8152602001908152602001600020600401888154811062002975576200297562004a27565b906000526020600020016040516200298e919062004b06565b60006040518083038185875af1925050503d8060008114620029cd576040519150601f19603f3d011682016040523d82523d6000602084013e620029d2565b606091505b505090508062002a255760405162461bcd60e51b815260206004820181905260248201527f45524332304775696c643a2050726f706f73616c2063616c6c206661696c6564604482015260640162000e0b565b50506017805460ff19169055505b8262002a3f8162004a3d565b93505062002614565b60015460405163fb0fde8560e01b81523060048201526001600160a01b039091169063fb0fde85906024016020604051808303816000875af115801562002a93573d6000803e3d6000fd5b505050506040513d601f19601f8201168201806040525081019062002ab9919062004b84565b508460008051602062005380833981519152600360405190815260200160405180910390a250505b600c5462002af19060016200345f565b600c55505050565b6000620021d561271062002b1b60055462002b148662002b22565b906200347b565b906200346d565b600080600062002b3484601a62003489565b91509150811562002b46579392505050565b5050600e5492915050565b6001600160a01b03821660009081526019602052604081208190819062002b7a90859062003489565b91509150811562002b8f579150620021d59050565b6001600160a01b0385166000908152601260205260409020545b92505050620021d5565b6000601054600e54101562002c315760405162461bcd60e51b815260206004820152603960248201527f45524332304775696c643a204e6f7420656e6f75676820746f6b656e73206c6f60448201527f636b656420746f2063726561746520612070726f706f73616c00000000000000606482015260840162000e0b565b600f54600b54101562002ca35760405162461bcd60e51b815260206004820152603360248201527f45524332304775696c643a204e6f7420656e6f756768206d656d6265727320746044820152721bc818dc99585d194818481c1c9bdc1bdcd85b606a1b606482015260840162000e0b565b600954600c541062002d175760405162461bcd60e51b815260206004820152603660248201527f45524332304775696c643a204d6178696d756d20616d6f756e74206f662061636044820152751d1a5d99481c1c9bdc1bdcd85b1cc81c995858da195960521b606482015260840162000e0b565b62002d2162000d5f565b33600090815260126020526040902054101562002d9f5760405162461bcd60e51b815260206004820152603560248201527f45524332304775696c643a204e6f7420656e6f75676820766f74696e67506f77604482015274195c881d1bc818dc99585d19481c1c9bdc1bdcd85b605a1b606482015260840162000e0b565b8551875114801562002db2575084518751145b62002e1d5760405162461bcd60e51b815260206004820152603460248201527f45524332304775696c643a2057726f6e67206c656e677468206f6620746f2c2060448201527364617461206f722076616c75652061727261797360601b606482015260840162000e0b565b600087511162002e8a5760405162461bcd60e51b815260206004820152603160248201527f45524332304775696c643a20746f2c20646174612076616c7565206172726179604482015270732063616e6e6f7420626520656d70747960781b606482015260840162000e0b565b8651841115801562002ea8575083855162002ea6919062004ba8565b155b62002f1c5760405162461bcd60e51b815260206004820152603760248201527f45524332304775696c643a20496e76616c696420746f74616c4f7074696f6e7360448201527f206f72206f7074696f6e2063616c6c73206c656e677468000000000000000000606482015260840162000e0b565b600a84111562002f955760405162461bcd60e51b815260206004820152603a60248201527f45524332304775696c643a204d6178696d756d20616d6f756e74206f66206f7060448201527f74696f6e73207065722070726f706f73616c2072656163686564000000000000606482015260840162000e0b565b600a546040516bffffffffffffffffffffffff193360601b1660208201524260348201526054810191909152600090607401604051602081830303815290604052805190602001209050600a54600162002ff0919062004bbf565b600a55600081815260156020526040902080546001600160a01b031916331781554260018201819055600354620030279162004bbf565b600282015588516200304390600383019060208c019062003b4e565b5087516200305b90600483019060208b019062003bb8565b5086516200307390600583019060208a019062003c11565b50600681016200308486826200495a565b50600781016200309585826200495a565b50620030a386600162004bbf565b67ffffffffffffffff811115620030be57620030be62003e37565b604051908082528060200260200182016040528015620030e8578160200160208202803683370190505b5080516200310191600984019160209091019062003c11565b5060088101805460ff19166001908117909155600c54620031229162004bbf565b600c558160008051602062005380833981519152600160405190815260200160405180910390a250601680546001810182556000919091527fd833147d7dc355ba459fc788f669e58cfaf9dc25ddcd0702e87d69c7b512428901819055979650505050505050565b600062003198828462004bbf565b9392505050565b60008381526014602090815260408083206001600160a01b0388168452825280832060010154868452601590925290912060090180548392919085908110620031ec57620031ec62004a27565b906000526020600020015462003203919062004bd5565b6200320f919062004bbf565b600084815260156020526040902060090180548490811062003235576200323562004a27565b60009182526020808320909101929092558481526014825260408082206001600160a01b03881683528352808220858155600101849055858252601590925220600201546200329c856001600160a01b031660009081526012602052604090206001015490565b1015620032d1576000838152601560209081526040808320600201546001600160a01b03881684526012909252909120600101555b604080516001600160a01b038616815260208101839052839185917f583c62f152711bcb1ca6186c1065821ff17a7cbe226dcb559a1c889dcf0d769b910160405180910390a360075415620033f5576000620033396008543a6200359590919063ffffffff16565b600754620033489190620046b0565b90508047101580156200335a5750333b155b15620033f357604051600090339083908381818185875af1925050503d8060008114620033a4576040519150601f19603f3d011682016040523d82523d6000602084013e620033a9565b606091505b50509050806200143d5760405162461bcd60e51b81526020600482015260146024820152734661696c656420746f20726566756e642067617360601b604482015260640162000e0b565b505b50505050565b60008060006200340c8585620035ad565b91509150620021d18162003621565b6001600160a01b03811660009081526019602090815260408083206012909252909120546200344b9190620037ef565b50565b6200345d601a600e54620037ef565b565b600062003198828462004bd5565b6000620031988284620046e0565b6000620031988284620046b0565b60008060008411620034de5760405162461bcd60e51b815260206004820152601b60248201527f536e617073686f7445524332304775696c643a20696420697320300000000000604482015260640162000e0b565b601c548411156200353d5760405162461bcd60e51b815260206004820152602260248201527f536e617073686f7445524332304775696c643a206e6f6e6578697374656e74206044820152611a5960f21b606482015260840162000e0b565b60006200354b848662003833565b845490915081036200356557600080925092505062000f52565b60018460010182815481106200357f576200357f62004a27565b9060005260206000200154925092505062000f52565b6000818310620035a6578162003198565b5090919050565b6000808251604103620035e75760208301516040840151606085015160001a620035da87828585620038f3565b9450945050505062000f52565b825160400362003614576020830151604084015162003608868383620039e8565b93509350505062000f52565b5060009050600262000f52565b600081600481111562003638576200363862004247565b03620036415750565b600181600481111562003658576200365862004247565b03620036a75760405162461bcd60e51b815260206004820152601860248201527f45434453413a20696e76616c6964207369676e61747572650000000000000000604482015260640162000e0b565b6002816004811115620036be57620036be62004247565b036200370d5760405162461bcd60e51b815260206004820152601f60248201527f45434453413a20696e76616c6964207369676e6174757265206c656e67746800604482015260640162000e0b565b600381600481111562003724576200372462004247565b036200377e5760405162461bcd60e51b815260206004820152602260248201527f45434453413a20696e76616c6964207369676e6174757265202773272076616c604482015261756560f01b606482015260840162000e0b565b600481600481111562003795576200379562004247565b036200344b5760405162461bcd60e51b815260206004820152602260248201527f45434453413a20696e76616c6964207369676e6174757265202776272076616c604482015261756560f01b606482015260840162000e0b565b601c5480620037fe8462003a19565b1015620010ca578254600180820185556000858152602080822090930193909355938401805494850181558252902090910155565b815460009081905b808210156200389c57600062003852838362003a69565b9050848682815481106200386a576200386a62004a27565b90600052602060002001541115620038855780915062003895565b6200389281600162004bbf565b92505b506200383b565b600082118015620038d757508385620038b760018562004bd5565b81548110620038ca57620038ca62004a27565b9060005260206000200154145b15620038ea5762002ba960018362004bd5565b509050620021d5565b6000807f7fffffffffffffffffffffffffffffff5d576e7357a4501ddfe92f46681b20a08311156200392c5750600090506003620039df565b8460ff16601b141580156200394557508460ff16601c14155b15620039585750600090506004620039df565b6040805160008082526020820180845289905260ff881692820192909252606081018690526080810185905260019060a0016020604051602081039080840390855afa158015620039ad573d6000803e3d6000fd5b5050604051601f1901519150506001600160a01b038116620039d857600060019250925050620039df565b9150600090505b94509492505050565b6000806001600160ff1b03831660ff84901c601b0162003a0b87828885620038f3565b935093505050935093915050565b8054600090810362003a2d57506000919050565b8154829062003a3f9060019062004bd5565b8154811062003a525762003a5262004a27565b90600052602060002001549050919050565b919050565b6000600262003a79818462004ba8565b62003a8660028662004ba8565b62003a92919062004bbf565b62003a9e9190620046e0565b62003aab600284620046e0565b62003ab8600286620046e0565b62003ac4919062004bbf565b62003198919062004bbf565b6107948062004bec83390190565b60405180610140016040528060006001600160a01b03168152602001600081526020016000815260200160608152602001606081526020016060815260200160608152602001606081526020016000600481111562003b415762003b4162004247565b8152602001606081525090565b82805482825590600052602060002090810192821562003ba6579160200282015b8281111562003ba657825182546001600160a01b0319166001600160a01b0390911617825560209092019160019091019062003b6f565b5062003bb492915062003c4f565b5090565b82805482825590600052602060002090810192821562003c03579160200282015b8281111562003c03578251829062003bf290826200495a565b509160200191906001019062003bd9565b5062003bb492915062003c66565b82805482825590600052602060002090810192821562003ba6579160200282015b8281111562003ba657825182559160200191906001019062003c32565b5b8082111562003bb4576000815560010162003c50565b8082111562003bb457600062003c7d828262003c87565b5060010162003c66565b50805462003c95906200465e565b6000825580601f1062003ca6575050565b601f0160209004906000526020600020908101906200344b919062003c4f565b6020808252825182820181905260009190848201906040850190845b8181101562003d005783518352928401929184019160010162003ce2565b50909695505050505050565b80356001600160a01b038116811462003a6457600080fd5b60006020828403121562003d3757600080fd5b620031988262003d0c565b6000815180845260005b8181101562003d6a5760208185018101518683018201520162003d4c565b506000602082860101526020601f19601f83011685010191505092915050565b60208152600062003198602083018462003d42565b6000806000806000806000806000806101408b8d03121562003dc057600080fd5b505088359a60208a01359a5060408a013599606081013599506080810135985060a0810135975060c0810135965060e081013595506101008101359450610120013592509050565b6000806040838503121562003e1c57600080fd5b8235915062003e2e6020840162003d0c565b90509250929050565b634e487b7160e01b600052604160045260246000fd5b601f8201601f1916810167ffffffffffffffff8111828210171562003e765762003e7662003e37565b6040525050565b600067ffffffffffffffff82111562003e9a5762003e9a62003e37565b5060051b60200190565b600082601f83011262003eb657600080fd5b8135602062003ec58262003e7d565b60405162003ed4828262003e4d565b83815260059390931b850182019282810191508684111562003ef557600080fd5b8286015b8481101562003f1b5762003f0d8162003d0c565b835291830191830162003ef9565b509695505050505050565b600082601f83011262003f3857600080fd5b813567ffffffffffffffff81111562003f555762003f5562003e37565b60405162003f6e601f8301601f19166020018262003e4d565b81815284602083860101111562003f8457600080fd5b816020850160208301376000918101602001919091529392505050565b600082601f83011262003fb357600080fd5b8135602062003fc28262003e7d565b60405162003fd1828262003e4d565b83815260059390931b850182019282810191508684111562003ff257600080fd5b8286015b8481101562003f1b57803567ffffffffffffffff811115620040185760008081fd5b620040288986838b010162003f26565b84525091830191830162003ff6565b600082601f8301126200404957600080fd5b81356020620040588262003e7d565b60405162004067828262003e4d565b83815260059390931b85018201928281019150868411156200408857600080fd5b8286015b8481101562003f1b57803583529183019183016200408c565b60008060008060008060c08789031215620040bf57600080fd5b863567ffffffffffffffff80821115620040d857600080fd5b620040e68a838b0162003ea4565b97506020890135915080821115620040fd57600080fd5b6200410b8a838b0162003fa1565b965060408901359150808211156200412257600080fd5b620041308a838b0162004037565b95506060890135945060808901359150808211156200414e57600080fd5b6200415c8a838b0162003f26565b935060a08901359150808211156200417357600080fd5b506200418289828a0162003f26565b9150509295509295509295565b600080600060608486031215620041a557600080fd5b505081359360208301359350604090920135919050565b600060208284031215620041cf57600080fd5b5035919050565b600080600080600060a08688031215620041ef57600080fd5b8535945060208601359350604086013592506200420f6060870162003d0c565b9150608086013567ffffffffffffffff8111156200422c57600080fd5b6200423a8882890162003f26565b9150509295509295909350565b634e487b7160e01b600052602160045260246000fd5b600581106200427c57634e487b7160e01b600052602160045260246000fd5b9052565b60018060a01b038716815285602082015284604082015260c060608201526000620042af60c083018662003d42565b8281036080840152620042c3818662003d42565b915050620042d560a08301846200425d565b979650505050505050565b60008060008060008060008060008060006101608c8e0312156200430357600080fd5b6200430e8c62003d0c565b9a5060208c0135995060408c0135985060608c0135975060808c0135965060a08c013567ffffffffffffffff8111156200434757600080fd5b620043558e828f0162003f26565b96505060c08c0135945060e08c013593506101008c013592506101208c01359150620043856101408d0162003d0c565b90509295989b509295989b9093969950565b600081518084526020808501945080840160005b83811015620043d25781516001600160a01b031687529582019590820190600101620043ab565b509495945050505050565b600081518084526020808501808196508360051b8101915082860160005b85811015620044295782840389526200441684835162003d42565b98850198935090840190600101620043fb565b5091979650505050505050565b600081518084526020808501945080840160005b83811015620043d2578151875295820195908201906001016200444a565b60208152620044836020820183516001600160a01b03169052565b602082015160408201526040820151606082015260006060830151610140806080850152620044b761016085018362004397565b91506080850151601f19808685030160a0870152620044d78483620043dd565b935060a08701519150808685030160c0870152620044f6848362004436565b935060c08701519150808685030160e087015262004515848362003d42565b935060e0870151915061010081878603018188015262004536858462003d42565b94508088015192505061012062004550818801846200425d565b8701518685039091018387015290506200456b838262004436565b9695505050505050565b600080600080608085870312156200458c57600080fd5b620045978562003d0c565b966020860135965060408601359560600135945092505050565b60008060408385031215620045c557600080fd5b823567ffffffffffffffff80821115620045de57600080fd5b620045ec8683870162003ea4565b935060208501359150808211156200460357600080fd5b50620046128582860162004037565b9150509250929050565b60208152600062003198602083018462004436565b600080604083850312156200464557600080fd5b620046508362003d0c565b946020939093013593505050565b600181811c908216806200467357607f821691505b6020821081036200469457634e487b7160e01b600052602260045260246000fd5b50919050565b634e487b7160e01b600052601160045260246000fd5b8082028115828204841417620021d557620021d56200469a565b634e487b7160e01b600052601260045260246000fd5b600082620046f257620046f2620046ca565b500490565b6020808252602f908201527f45524332304775696c643a2070726f706f73616c2074696d652068617320746f60408201526e0206265206d6f7265207468616e203608c1b606082015260800190565b6020808252603e908201527f45524332304775696c643a206c6f636b54696d652068617320746f206265206860408201527f6967686572206f7220657175616c20746f2070726f706f73616c54696d650000606082015260800190565b6020808252603c908201527f45524332304775696c643a20766f74696e6720706f77657220666f722065786560408201527f637574696f6e2068617320746f206265206d6f7265207468616e203000000000606082015260800190565b60208082526033908201527f536e617073686f7445524332304775696c643a2050726f706f73616c20656e6460408201527219590b0818d85b9b9bdd081899481d9bdd1959606a1b606082015260800190565b6020808252602e908201527f536e617073686f7445524332304775696c643a20496e76616c696420766f746960408201526d1b99d41bddd95c88185b5bdd5b9d60921b606082015260800190565b60208082526049908201527f536e617073686f7445524332304775696c643a2043616e6e6f74206368616e6760408201527f65206f7074696f6e20766f7465642c206f6e6c7920696e63726561736520766f6060820152683a34b733a837bbb2b960b91b608082015260a00190565b601f821115620010ca57600081815260208120601f850160051c81016020861015620049395750805b601f850160051c820191505b818110156200143d5782815560010162004945565b815167ffffffffffffffff81111562004977576200497762003e37565b6200498f816200498884546200465e565b8462004910565b602080601f831160018114620049c75760008415620049ae5750858301515b600019600386901b1c1916600185901b1785556200143d565b600085815260208120601f198616915b82811015620049f857888601518255948401946001909101908401620049d7565b508582101562004a175787850151600019600388901b60f8161c191681555b5050505050600190811b01905550565b634e487b7160e01b600052603260045260246000fd5b60006001820162004a525762004a526200469a565b5060010190565b600060033d111562004a735760046000803e5060005160e01c5b90565b600060443d101562004a855790565b6040516003193d81016004833e81513d67ffffffffffffffff816024840111818411171562004ab657505050505090565b828501915081518181111562004acf5750505050505090565b843d870101602082850101111562004aea5750505050505090565b62004afb6020828601018762003e4d565b509095945050505050565b600080835462004b16816200465e565b6001828116801562004b31576001811462004b475762004b78565b60ff198416875282151583028701945062004b78565b8760005260208060002060005b8581101562004b6f5781548a82015290840190820162004b54565b50505082870194505b50929695505050505050565b60006020828403121562004b9757600080fd5b815180151581146200319857600080fd5b60008262004bba5762004bba620046ca565b500690565b80820180821115620021d557620021d56200469a565b81810381811115620021d557620021d56200469a56fe608060405234801561001057600080fd5b5060405161079438038061079483398101604081905261002f9161007c565b600080546001600160a01b039384166001600160a01b031991821617909155600180549290931691161790556100af565b80516001600160a01b038116811461007757600080fd5b919050565b6000806040838503121561008f57600080fd5b61009883610060565b91506100a660208401610060565b90509250929050565b6106d6806100be6000396000f3fe608060405234801561001057600080fd5b506004361061007d5760003560e01c80636e9960c31161005b5780636e9960c3146100ef578063f3fef3a314610100578063f851a44014610113578063fc0c546a1461012657600080fd5b806321df0da71461008257806327e235e3146100ac57806347e7ef24146100da575b600080fd5b6000546001600160a01b03165b6040516001600160a01b0390911681526020015b60405180910390f35b6100cc6100ba36600461058a565b60026020526000908152604090205481565b6040519081526020016100a3565b6100ed6100e83660046105a5565b610139565b005b6001546001600160a01b031661008f565b6100ed61010e3660046105a5565b61020a565b60015461008f906001600160a01b031681565b60005461008f906001600160a01b031681565b6001546001600160a01b031633146101af5760405162461bcd60e51b815260206004820152602e60248201527f546f6b656e5661756c743a204465706f736974206d7573742062652073656e7460448201526d103a343937bab3b41030b236b4b760911b60648201526084015b60405180910390fd5b6000546101c7906001600160a01b031683308461025b565b6001600160a01b0382166000908152600260205260409020546101ea90826102cc565b6001600160a01b0390921660009081526002602052604090209190915550565b6001546001600160a01b0316331461022157600080fd5b600054610238906001600160a01b031683836102e1565b6001600160a01b0382166000908152600260205260409020546101ea9082610316565b6040516001600160a01b03808516602483015283166044820152606481018290526102c69085906323b872dd60e01b906084015b60408051601f198184030181529190526020810180516001600160e01b03166001600160e01b031990931692909217909152610322565b50505050565b60006102d882846105e5565b90505b92915050565b6040516001600160a01b03831660248201526044810182905261031190849063a9059cbb60e01b9060640161028f565b505050565b60006102d882846105f8565b6000610377826040518060400160405280602081526020017f5361666545524332303a206c6f772d6c6576656c2063616c6c206661696c6564815250856001600160a01b03166103f49092919063ffffffff16565b8051909150156103115780806020019051810190610395919061060b565b6103115760405162461bcd60e51b815260206004820152602a60248201527f5361666545524332303a204552433230206f7065726174696f6e20646964206e6044820152691bdd081cdd58d8d9595960b21b60648201526084016101a6565b6060610403848460008561040d565b90505b9392505050565b60608247101561046e5760405162461bcd60e51b815260206004820152602660248201527f416464726573733a20696e73756666696369656e742062616c616e636520666f6044820152651c8818d85b1b60d21b60648201526084016101a6565b843b6104bc5760405162461bcd60e51b815260206004820152601d60248201527f416464726573733a2063616c6c20746f206e6f6e2d636f6e747261637400000060448201526064016101a6565b600080866001600160a01b031685876040516104d89190610651565b60006040518083038185875af1925050503d8060008114610515576040519150601f19603f3d011682016040523d82523d6000602084013e61051a565b606091505b509150915061052a828286610535565b979650505050505050565b60608315610544575081610406565b8251156105545782518084602001fd5b8160405162461bcd60e51b81526004016101a6919061066d565b80356001600160a01b038116811461058557600080fd5b919050565b60006020828403121561059c57600080fd5b6102d88261056e565b600080604083850312156105b857600080fd5b6105c18361056e565b946020939093013593505050565b634e487b7160e01b600052601160045260246000fd5b808201808211156102db576102db6105cf565b818103818111156102db576102db6105cf565b60006020828403121561061d57600080fd5b8151801515811461040657600080fd5b60005b83811015610648578181015183820152602001610630565b50506000910152565b6000825161066381846020870161062d565b9190910192915050565b602081526000825180602084015261068c81604085016020870161062d565b601f01601f1916919091016040019291505056fea26469706673582212200dc40e929cb7cd09eab9a5dff5e560bcf87fefdb78df12750c3659d40d03ae5e64736f6c63430008110033fee62a9eec0be50eb061c711990ef0f1e17b40ea131d9347b0468acdaf8bf243a2646970667358221220f554b3e049be649367a723f5896aaed42bd587791757f56f44ebf8271b3a460d64736f6c63430008110033",
  "linkReferences": {},
  "deployedLinkReferences": {}
}